:03400000024BBDB3
:03400B0002428CE2
:10401B00E92AC0E0E954F02A54F0F5F0D0E0540F4F
:10402B0025F022E5F0F0A3E8C39401F8E99400F938
:10403B0070F1E870EE22E5F054F0C42430F0A3E503
:10404B00F0540F2430F0A37400F022C0E054F02A97
:10405B0054F0F5F0D0E02A540F25F02275F0E6006D
:10406B0000D5F0FBD5E0F522C0F0540FF5F0C425D8
:10407B00F0F5F0124283F583758200E5F0F0D582FE
:10408B00FCD0F022C013C014C0E053F00F85F01425
:10409B0092D5AB11A2D58CF01242560582DBF515E9
:1040AB0082151274202582F58272D592D58CF0126E
:1040BB004256E51114F404AB822582F5828CF0A2F2
:1040CB00D51242568B82D512DAAB111B1B15828C83
:1040DB00F0A2D5124256DBF5D0E0D014D01322C09B
:1040EB00E0C013C014C01553F00F92D5ACF0AB82E7
:1040FB008915A2D58CF01242560582D515F48B8208
:10410B0074202582F58272D592D5DAE2D015D014BF
:10411B00D013D0E022C0E0C012C013C014C0209254
:10412B0000740093A2E792D5547FFAA3891474000C
:10413B0093FBA3B4880E8C11742029F972009200A2
:10414B00DAEA8022C4540F700320D507F5F0A200E1
:10415B00124268EB540F09700320D507F5F0A2004B
:10416B001242680980C8D020D014D013D012D0E0EE
:10417B0022C011C020C200A2D59201740093B420BA
:10418B0002D2006019C083C0821241AE74043000A9
:10419B00027402C20029F9D082D083A380DDD02023
:1041AB00D01122C0D08919D2D4D2D3ADF0C3942070
:1041BB0075F003A4904DE72582F582E5F03583F584
:1041CB00838DF01241D7D0D0851DF022ADF07F0347
:1041DB00891C740093A3FB30E7078DF0A2D5124224
:1041EB006809EB30E6078DF0A2D512426809EB3077
:1041FB00E5078DF0A2D512426809EB30E4078DF08C
:10420B00A2D512426874202CFC72D592D5A91CEB56
:10421B0030E3078DF0A2D512426809EB30E2078D2F
:10422B00F0A2D512426809EB30E1078DF0A2D5124E
:10423B00426809EB30E0078DF0A2D512426874207A
:10424B002CFC72D592D5A91CDF8622E0500654F0C7
:10425B0025F08007540FC5F0C425F0F022E350067B
:10426B0054F025F08007540FC5F0C425F0F322302D
:10427B007F03741022741122307F03741122741087
:10428B0022758CF8758ACFC0D075D008C0E0C0F00D
:10429B00C082C08390C000517AF5A0C291890B7A7D
:1042AB0020E3F009C290D290DAF7EBA2E79293A247
:1042BB00E69294A2E59295D2917007B27E307E027F
:1042CB00D27DD083D082D0F0D0E0D0D08536A03252
:1042DB0075361275A0127925901220E0232329F947
:1042EB00FC9012217A04C3E0F5F0E395F009058206
:1042FB00DAF5400412438022ECF99012217A04E0A3
:10430B00F3090582DAF9904B16794B78167B4B7AC9
:10431B00167D437C297F437E42D3124B4422752169
:10432B000075203C79437880124B1722800948494D
:10433B0053434F5245210074001173C2D55183F57D
:10434B0036F5A0792090433975F007317C90200029
:10435B0075361275A01279247B04E3F5F01911411F
:10436B00DBF8D2D55183F536F5A079209020007576
:10437B00F006317C227A049012217400F00582DA67
:10438B00FB75361275A012790AE3F58209E3F58302
:10439B0074A6C0E07443C0E074007322C020901276
:1043AB00217520047400F00582D520FAD02022C09C
:1043BB0020901221E025F0D4F0752003A3E0340007
:1043CB00D4F0D520F7D020229020007920780075EA
:1043DB00F000112E904B16794B78167B4B7A167D8D
:1043EB00447CFB7F447EEDD3124B44229044B7793F
:1043FB004B78167B447A0F7D4B7C167F4B7E16D306
:10440B00124B44225183C0E07400117390200FE0D3
:10441B00B4001190442675F002800754455452495C
:10442B005300802AB4011190443A75F00580074A75
:10443B004952554E47008016B4020575F0018000B5
:10444B00902000C0F0F5F01141902000D0F0A88131
:10445B00863686A07902D2D5C0F0317C853683753D
:10446B008200D0F079207A10C3118F75822175F0FC
:10447B0007791E7A0EC3118F90200FE02323753618
:10448B001275A0127925292402F99020007A03E3F2
:10449B00F5F0191141DAF890200075F006C2D5A895
:1044AB0081863686A07942317CD0E022E820E51A5D
:1044BB0020E42320E2012290200FE0B400041245F7
:1044CB001722B401041249B1222290200FE004B448
:1044DB0002027400F02290200FE014B4FFF6740176
:1044EB0080F25183F5A07900904CD6C2D7312022AF
:1044FB0075210075202D794378F7124B1722270F62
:10450B001747633666050103040205069020007900
:10451B0020780075F000112E9048E5794578D77B0F
:10452B00477A467D477C097F487EA1D3124B4422B4
:10453B00C014C0F0D2D575362075A0207900EB8A57
:10454B00F012457AA9121245957C03E0C4C0E054E1
:10455B00F02A54F0F5F0D0E02A540F25F0F9F5F0DD
:10456B00EB12457A124595A3DCE1D0F0D01422C4AE
:10457B00540FC5F0C4540FC395F0240430E703C2A5
:10458B00D522C394084002C2D522E9540FC3940A22
:10459B005005E370028002C2D522902105E09045C0
:1045AB000993FF7E007D0875362175A0217909904E
:1045BB0045CFBE06028009EF33FF5004EE93F3099B
:1045CB000EDDEF22EFFF0F1FE0F00010902103E054
:1045DB00600314F022902108E0FB2410FA0582B14D
:1045EB003B30D50A902108EAF02076E0C1F4C27680
:1045FB0075F00171BAD27B902105E090451093F5CF
:10460B002075362175A0217808E2FC902000F582F8
:10461B00E520F07B0308E2C4C0E054F02C54F0F525
:10462B00F0D0E02C540F25F0F582E520F0DBE67E90
:10463B00007F007B1090200012467F30D521124660
:10464B00930EEE2FFF902101E014F070E890210003
:10465B00E004F075F007A4902101F0D27880D6DB4E
:10466B00D4EF75F003A4D4F5F0902100E0A4F5F09D
:10467B0071BA8036EB14C4F5827C0AD2D5E0700394
:10468B00C2D5220582DCF6228583368583A0EBFC1E
:10469B00EC14C4F8EC1414C4F97D0AE3F20809DD38
:1046AB00FADCED7D0A78007400229021087414F076
:1046BB00E58B75F00784902106E0902105F09021A1
:1046CB0006E5F0F0D27AB1A5902108E0FAFB05825D
:1046DB00B13B20D51490120A7417F005827445F083
:1046EB009012207400F051DB22902100E075F00352
:1046FB00A424E2F404902103F0D279C27722D27B76
:10470B00D278D279D27AC27771A7E58B75F007840C
:10471B00902106C0E0E5F0F0902105D0E075F007A0
:10472B0084E5F0F09021087414F0B1A59021007489
:10473B0001F09021017405F0C276225183FF30788D
:10474B00228F837582E175F00079047A06C311EA32
:10475B00902100E0243075F0038F368FA079E1C2F1
:10476B00D531AE20790302481475362075A0207818
:10477B00008F837C107B0AEC14C42B14F8E2C0E08E
:10478B00E8C0E054F03392D554E0D0F053F00F254D
:10479B00F02406F582A2D5D0F05156DBDADCD690A8
:1047AB002105E090451093FD902108E0FE8F83C01A
:1047BB00E054F03392D554E0D0F053F00F25F024B1
:1047CB0006F582A2D58DF051567A03902108058209
:1047DB00C082C083E0C4C0E054F02E54F0F5F0D09A
:1047EB00E02E540F25F0C0E054F03392D554E0D0B6
:1047FB00F053F00F25F024068F83F582A2D58DF0B0
:10480B00124256D083D082DAC5307B397536127599
:10481B00A012782290210CE2F5F012404118E2F53B
:10482B00F01240418F8375827075F00079107A0613
:10483B00C31240EAC2D58F368FA0797090210C75C8
:10484B00F00612417C307A3D902106E0F5F0904560
:10485B000993FB904510E5F093FC8F837582417AA9
:10486B0004EB33FB50088CF0C31242568007C37520
:10487B00F0001242560582DAE8E58220E5077582E0
:10488B00617A0480DC207703D27722C277C278C2A8
:10489B007AC279C27B22124283FF74001240738F5B
:1048AB008375820075F00779067A06C312408F75FF
:1048BB00820575F007790C7A10C312408F7582064A
:1048CB0075F000790A7A10C312408F75821175F05A
:1048DB0007790F7A10C31240EA2288F09021088AD8
:1048EB002230F104D276801530F6067B0F12495533
:1048FB002230F3067B011249552230150790210314
:10490B007400F02230F26C902108E0FA0582124913
:10491B007F20D5201A90210912497F20D50C0A0A35
:10492B0090210912497F20D5012275362175A021CE
:10493B007808EAF275362175A02178097A03E0F23E
:10494B00080582DAF9D279C27722E0C0E0C0E054E0
:10495B00F02B54F0F5F0D0E02B540F25F0D013FAD8
:10496B00058212453B20D50122902108EAF0D2792D
:10497B00C277222275362175A0217840752103E07C
:10498B00C4C0E0F404540FF5F0D0E054F025F0F27D
:10499B00080582D521E9158215829021408A1312D0
:1049AB00453B902140229020007920780075F00043
:1049BB0012402E904AF2794978D67B4A7A8C7D4AFE
:1049CB007C6D7F4B7E16D3124B4422902104E0600A
:1049DB000314F0227403F0902101E0C0E090210059
:1049EB00E0D012124056F0FB7583208B82E06015ED
:1049FB0090120A74B1F005827449F0901220740180
:104A0B00F01242DB22902103E08BF0B5F0389021BD
:104A1B0002E004F0758320E58BF582A2E092D5E0ED
:104A2B00600B20D504158280F6058280F2E582901A
:104A3B002103F0902102E0FA75F0321243BAEAC377
:104A4B00940A50F3800B902000E0600214F0D582A2
:104A5B00F8902100E0C0E0902102E0D08275832025
:104A6B00F0229021027401F09021007477F09021D4
:104A7B00037499F09021017410F09021047400F0EC
:104A8B0022740012407375820075F00179087A1058
:104A9B00C312408F75821875F00179087A10C31212
:104AAB00408F75362075A0207900E3600EE9124A1D
:104ABB00DFF58275F007A2D5124256D9ED75362176
:104ACB0075A0217903E3124ADFF58275F006A2D5B2
:104ADB0012425622C0E054F03392D554E0D0F0533A
:104AEB00F00F25F02408228820902101E0300404E7
:104AFB0074F080153005047410800E300604740FAA
:104B0B00800730030474018000F02222901200EA27
:104B1B00C0E07A04E00582700260060582DAF58057
:104B2B0014E521F01582E520F074082582F582E862
:104B3B00F00582E9F0D0E0FA22C28C501AC0F0C026
:104B4B0083C08290120075F0087400F00582D5F0D6
:104B5B00F8D082D083D0F08582308583318832893A
:104B6B00338A348B35C0E0EFC0E0EEC0E08C828D31
:104B7B00837487C0E0744BC0E0740073D082D08321
:104B8B00C083C082749AC0E0744BC0E0740073B2EF
:104B9B007FD082D08374ABC0E0744BC0E0740073E1
:104BAB00D0E0D28C2275D00075815F7858C28C0210
:104BBB0000577581387590FF75D0109010007910E3
:104BCB00780075F00012402E78087908760008D925
:104BDB00FB740090407374ECC0E0744BC0E0740045
:104BEB0073B27F90407374FCC0E0744BC0E07400F0
:104BFB0073D2A9D28CD28E758D639012007A087500
:104C0B008921D2AF7400F00582DAF91243D3307DDB
:104C1B00FDC27D124C25B27F80F475D010124C6210
:104C2B00124CB2853082853183743FC0E0744CC026
:104C3B00E07400738532828533837450C0E0744C0A
:104C4B00C0E07400738534828535837461C0E07471
:104C5B004CC0E07400732275361275A01279007A7D
:104C6B0004E3097007E3700409DAF62219E314F37D
:104C7B000970F5E3600914F31974FFF30980E9195E
:104C8B00C011C012C036740829F9E3F58209E3F5A7
:104C9B008374A7C0E0744CC0E0740073D0368536C3
:104CAB00A0D012D01180C190C000E0A2E09297F486
:104CBB00FBAC3762145CF8E5375CF9EB5537FA8BD4
:104CCB003788F020F001221243D322101111111159
:104CDB001111111111111111111111118811111142
:104CEB001111111111111111111111111188111132
:104CFB0011111111166666666611111111118811C9
:104D0B001111111116666666666661111111118813
:104D1B001111111111666666444446666111111238
:104D2B0088111111211666664444244466611111E1
:104D3B0022881111122226666444222224466661BF
:104D4B002222881121222222264422222222446658
:104D5B006222228812222222222242222222222272
:104D6B0022222222882222222222222222222222B2
:104D7B0022222222228822222222222222222222A2
:104D8B0022222222222288222700070770777070A6
:104D9B0077777707770722882227077077077007BF
:104DAB000707070070070722882227707077707734
:104DBB000777070770700777228822270770770716
:104DCB0070070707070070070722882227070707C6
:104DDB0007777707070777077707228800000066B2
:104DEB0066065555A0000000000000000000000002
:104DFB000044800042222424444200A4A0004E40E0
:104E0B00000000000E000000CC12244869BD966A19
:104E1B00222F69124F69219626AF22F8E11E48E92D
:0D4E2B0096F9224469699669712404404497
:034E4400692404DA
:104E4A00699F99E9E99E788887E9999EF8E88FE849
:104E5A00E888698B9699F999E4444EF222AC9ACA89
:104E6A009988888FFDDDDD9DB999699996E99E88B3
:104E7A00699961E9E999694396E4444499999619CB
:0E4E8A0095319DDDDE9966999A4444F1A78F1B
:00000001FF
